{
  "contractName": "Main",
  "address": "0x4C2cd8aC185D83C714109dB55cCDCc62F35A206e",
  "abi": [
    {
      "inputs": [
        {
          "internalType": "string",
          "name": "initialMessage",
          "type": "string"
        }
      ],
      "stateMutability": "nonpayable",
      "type": "constructor"
    },
    {
      "inputs": [
        {
          "internalType": "address",
          "name": "",
          "type": "address"
        }
      ],
      "name": "addressToStringMap",
      "outputs": [
        {
          "internalType": "string",
          "name": "",
          "type": "string"
        }
      ],
      "stateMutability": "view",
      "type": "function",
      "constant": true
    },
    {
      "inputs": [],
      "name": "message",
      "outputs": [
        {
          "internalType": "string",
          "name": "",
          "type": "string"
        }
      ],
      "stateMutability": "view",
      "type": "function",
      "constant": true
    },
    {
      "inputs": [
        {
          "internalType": "address",
          "name": "_address",
          "type": "address"
        },
        {
          "internalType": "string",
          "name": "_string",
          "type": "string"
        }
      ],
      "name": "setString",
      "outputs": [],
      "stateMutability": "nonpayable",
      "type": "function"
    },
    {
      "inputs": [
        {
          "internalType": "address",
          "name": "_address",
          "type": "address"
        }
      ],
      "name": "getString",
      "outputs": [
        {
          "internalType": "string",
          "name": "",
          "type": "string"
        }
      ],
      "stateMutability": "view",
      "type": "function",
      "constant": true
    },
    {
      "inputs": [],
      "name": "getMessage",
      "outputs": [
        {
          "internalType": "string",
          "name": "",
          "type": "string"
        }
      ],
      "stateMutability": "view",
      "type": "function",
      "constant": true
    },
    {
      "inputs": [
        {
          "internalType": "string",
          "name": "newMessage",
          "type": "string"
        }
      ],
      "name": "setMessage",
      "outputs": [],
      "stateMutability": "nonpayable",
      "type": "function"
    }
  ],
  "bytecode": "0x60806040523480156200001157600080fd5b5060405162000fef38038062000fef8339818101604052810190620000379190620001e3565b80600090816200004891906200047f565b505062000566565b6000604051905090565b600080fd5b600080fd5b600080fd5b600080fd5b6000601f19601f8301169050919050565b7f4e487b7100000000000000000000000000000000000000000000000000000000600052604160045260246000fd5b620000b9826200006e565b810181811067ffffffffffffffff82111715620000db57620000da6200007f565b5b80604052505050565b6000620000f062000050565b9050620000fe8282620000ae565b919050565b600067ffffffffffffffff8211156200012157620001206200007f565b5b6200012c826200006e565b9050602081019050919050565b60005b83811015620001595780820151818401526020810190506200013c565b60008484015250505050565b60006200017c620001768462000103565b620000e4565b9050828152602081018484840111156200019b576200019a62000069565b5b620001a884828562000139565b509392505050565b600082601f830112620001c857620001c762000064565b5b8151620001da84826020860162000165565b91505092915050565b600060208284031215620001fc57620001fb6200005a565b5b600082015167ffffffffffffffff8111156200021d576200021c6200005f565b5b6200022b84828501620001b0565b91505092915050565b600081519050919050565b7f4e487b7100000000000000000000000000000000000000000000000000000000600052602260045260246000fd5b600060028204905060018216806200028757607f821691505b6020821081036200029d576200029c6200023f565b5b50919050565b60008190508160005260206000209050919050565b60006020601f8301049050919050565b600082821b905092915050565b600060088302620003077fffffffffffffffffffffffffffffffffffffffffffffffffffffffffffffffff82620002c8565b620003138683620002c8565b95508019841693508086168417925050509392505050565b6000819050919050565b6000819050919050565b6000620003606200035a62000354846200032b565b62000335565b6200032b565b9050919050565b6000819050919050565b6200037c836200033f565b620003946200038b8262000367565b848454620002d5565b825550505050565b600090565b620003ab6200039c565b620003b881848462000371565b505050565b5b81811015620003e057620003d4600082620003a1565b600181019050620003be565b5050565b601f8211156200042f57620003f981620002a3565b6200040484620002b8565b8101602085101562000414578190505b6200042c6200042385620002b8565b830182620003bd565b50505b505050565b600082821c905092915050565b6000620004546000198460080262000434565b1980831691505092915050565b60006200046f838362000441565b9150826002028217905092915050565b6200048a8262000234565b67ffffffffffffffff811115620004a657620004a56200007f565b5b620004b282546200026e565b620004bf828285620003e4565b600060209050601f831160018114620004f75760008415620004e2578287015190505b620004ee858262000461565b8655506200055e565b601f1984166200050786620002a3565b60005b8281101562000531578489015182556001820191506020850194506020810190506200050a565b868310156200055157848901516200054d601f89168262000441565b8355505b6001600288020188555050505b505050505050565b610a7980620005766000396000f3fe608060405234801561001057600080fd5b50600436106100625760003560e01c8063368b8772146100675780633801ebc61461008357806363f440721461009f5780637d434425146100cf578063ce6d41de146100ff578063e21f37ce1461011d575b600080fd5b610081600480360381019061007c919061058a565b61013b565b005b61009d60048036038101906100989190610631565b61014e565b005b6100b960048036038101906100b4919061068d565b61019f565b6040516100c69190610739565b60405180910390f35b6100e960048036038101906100e4919061068d565b61023f565b6040516100f69190610739565b60405180910390f35b610107610310565b6040516101149190610739565b60405180910390f35b6101256103a2565b6040516101329190610739565b60405180910390f35b806000908161014a9190610971565b5050565b80600160008473ffffffffffffffffffffffffffffffffffffffff1673ffffffffffffffffffffffffffffffffffffffff168152602001908152602001600020908161019a9190610971565b505050565b600160205280600052604060002060009150905080546101be9061078a565b80601f01602080910402602001604051908101604052809291908181526020018280546101ea9061078a565b80156102375780601f1061020c57610100808354040283529160200191610237565b820191906000526020600020905b81548152906001019060200180831161021a57829003601f168201915b505050505081565b6060600160008373ffffffffffffffffffffffffffffffffffffffff1673ffffffffffffffffffffffffffffffffffffffff168152602001908152602001600020805461028b9061078a565b80601f01602080910402602001604051908101604052809291908181526020018280546102b79061078a565b80156103045780601f106102d957610100808354040283529160200191610304565b820191906000526020600020905b8154815290600101906020018083116102e757829003601f168201915b50505050509050919050565b60606000805461031f9061078a565b80601f016020809104026020016040519081016040528092919081815260200182805461034b9061078a565b80156103985780601f1061036d57610100808354040283529160200191610398565b820191906000526020600020905b81548152906001019060200180831161037b57829003601f168201915b5050505050905090565b600080546103af9061078a565b80601f01602080910402602001604051908101604052809291908181526020018280546103db9061078a565b80156104285780601f106103fd57610100808354040283529160200191610428565b820191906000526020600020905b81548152906001019060200180831161040b57829003601f168201915b505050505081565b6000604051905090565b600080fd5b600080fd5b600080fd5b600080fd5b6000601f19601f8301169050919050565b7f4e487b7100000000000000000000000000000000000000000000000000000000600052604160045260246000fd5b6104978261044e565b810181811067ffffffffffffffff821117156104b6576104b561045f565b5b80604052505050565b60006104c9610430565b90506104d5828261048e565b919050565b600067ffffffffffffffff8211156104f5576104f461045f565b5b6104fe8261044e565b9050602081019050919050565b82818337600083830152505050565b600061052d610528846104da565b6104bf565b90508281526020810184848401111561054957610548610449565b5b61055484828561050b565b509392505050565b600082601f83011261057157610570610444565b5b813561058184826020860161051a565b91505092915050565b6000602082840312156105a05761059f61043a565b5b600082013567ffffffffffffffff8111156105be576105bd61043f565b5b6105ca8482850161055c565b91505092915050565b600073ffffffffffffffffffffffffffffffffffffffff82169050919050565b60006105fe826105d3565b9050919050565b61060e816105f3565b811461061957600080fd5b50565b60008135905061062b81610605565b92915050565b600080604083850312156106485761064761043a565b5b60006106568582860161061c565b925050602083013567ffffffffffffffff8111156106775761067661043f565b5b6106838582860161055c565b9150509250929050565b6000602082840312156106a3576106a261043a565b5b60006106b18482850161061c565b91505092915050565b600081519050919050565b600082825260208201905092915050565b60005b838110156106f45780820151818401526020810190506106d9565b60008484015250505050565b600061070b826106ba565b61071581856106c5565b93506107258185602086016106d6565b61072e8161044e565b840191505092915050565b600060208201905081810360008301526107538184610700565b905092915050565b7f4e487b7100000000000000000000000000000000000000000000000000000000600052602260045260246000fd5b600060028204905060018216806107a257607f821691505b6020821081036107b5576107b461075b565b5b50919050565b60008190508160005260206000209050919050565b60006020601f8301049050919050565b600082821b905092915050565b60006008830261081d7fffffffffffffffffffffffffffffffffffffffffffffffffffffffffffffffff826107e0565b61082786836107e0565b95508019841693508086168417925050509392505050565b6000819050919050565b6000819050919050565b600061086e6108696108648461083f565b610849565b61083f565b9050919050565b6000819050919050565b61088883610853565b61089c61089482610875565b8484546107ed565b825550505050565b600090565b6108b16108a4565b6108bc81848461087f565b505050565b5b818110156108e0576108d56000826108a9565b6001810190506108c2565b5050565b601f821115610925576108f6816107bb565b6108ff846107d0565b8101602085101561090e578190505b61092261091a856107d0565b8301826108c1565b50505b505050565b600082821c905092915050565b60006109486000198460080261092a565b1980831691505092915050565b60006109618383610937565b9150826002028217905092915050565b61097a826106ba565b67ffffffffffffffff8111156109935761099261045f565b5b61099d825461078a565b6109a88282856108e4565b600060209050601f8311600181146109db57600084156109c9578287015190505b6109d38582610955565b865550610a3b565b601f1984166109e9866107bb565b60005b82811015610a11578489015182556001820191506020850194506020810190506109ec565b86831015610a2e5784890151610a2a601f891682610937565b8355505b6001600288020188555050505b50505050505056fea2646970667358221220ca941af06e1cf868b385526b342834fd8f546cd4811873e5367753697bf9064e64736f6c63430008120033",
  "immutableReferences": {},
  "source": "// SPDX-License-Identifier: MIT\npragma solidity ^0.8.0;\n\ncontract Main {\n    string public message;\n    mapping(address => string) public addressToStringMap;\n\n    constructor(string memory initialMessage) public {\n        message = initialMessage;\n    }\n    \n\n    function setString(address _address, string memory _string) public {\n        addressToStringMap[_address] = _string;\n    }\n\n    function getString(address _address) public view returns (string memory) {\n        return addressToStringMap[_address];\n    }\n      function getMessage() public view returns (string memory) {\n        return message;\n    }\n     function setMessage(string memory newMessage) public {\n        message = newMessage;\n    }\n}",
  "sourcePath": "/home/eeshan/Desktop/Ethforall/client/contracts/Main.sol",
  "compiler": {
    "name": "solc",
    "version": "0.8.18+commit.87f61d96.Emscripten.clang"
  },
  "schemaVersion": "3.4.11",
  "updatedAt": "2023-02-13T19:09:36.370Z",
  "networkType": "ethereum",
  "devdoc": {
    "kind": "dev",
    "methods": {},
    "version": 1
  },
  "userdoc": {
    "kind": "user",
    "methods": {},
    "version": 1
  }
}