{
  "contractName": "Main",
  "address": "0x249343CBA3fe237951501D1A4aC6c752cA1fFBac",
  "abi": [
    {
      "inputs": [
        {
          "internalType": "address",
          "name": "_userAddress",
          "type": "address"
        },
        {
          "internalType": "bytes",
          "name": "_signingKey",
          "type": "bytes"
        },
        {
          "internalType": "string",
          "name": "_name",
          "type": "string"
        }
      ],
      "name": "setUser",
      "outputs": [],
      "stateMutability": "nonpayable",
      "type": "function"
    },
    {
      "inputs": [
        {
          "internalType": "address",
          "name": "_userAddress",
          "type": "address"
        }
      ],
      "name": "getUser",
      "outputs": [
        {
          "internalType": "bytes",
          "name": "",
          "type": "bytes"
        },
        {
          "internalType": "string",
          "name": "",
          "type": "string"
        }
      ],
      "stateMutability": "view",
      "type": "function",
      "constant": true
    }
  ],
  "bytecode": "0x608060405234801561001057600080fd5b50610b1c806100206000396000f3fe608060405234801561001057600080fd5b50600436106100365760003560e01c80636f77926b1461003b578063d12186c51461006c575b600080fd5b61005560048036038101906100509190610327565b610088565b604051610063929190610439565b60405180910390f35b61008660048036038101906100819190610646565b61022e565b005b6060806000808473ffffffffffffffffffffffffffffffffffffffff1673ffffffffffffffffffffffffffffffffffffffff1681526020019081526020016000206000016000808573ffffffffffffffffffffffffffffffffffffffff1673ffffffffffffffffffffffffffffffffffffffff16815260200190815260200160002060010181805461011990610700565b80601f016020809104026020016040519081016040528092919081815260200182805461014590610700565b80156101925780601f1061016757610100808354040283529160200191610192565b820191906000526020600020905b81548152906001019060200180831161017557829003601f168201915b505050505091508080546101a590610700565b80601f01602080910402602001604051908101604052809291908181526020018280546101d190610700565b801561021e5780601f106101f35761010080835404028352916020019161021e565b820191906000526020600020905b81548152906001019060200180831161020157829003601f168201915b5050505050905091509150915091565b6040518060400160405280838152602001828152506000808573ffffffffffffffffffffffffffffffffffffffff1673ffffffffffffffffffffffffffffffffffffffff168152602001908152602001600020600082015181600001908161029691906108e7565b5060208201518160010190816102ac9190610a14565b50905050505050565b6000604051905090565b600080fd5b600080fd5b600073ffffffffffffffffffffffffffffffffffffffff82169050919050565b60006102f4826102c9565b9050919050565b610304816102e9565b811461030f57600080fd5b50565b600081359050610321816102fb565b92915050565b60006020828403121561033d5761033c6102bf565b5b600061034b84828501610312565b91505092915050565b600081519050919050565b600082825260208201905092915050565b60005b8381101561038e578082015181840152602081019050610373565b60008484015250505050565b6000601f19601f8301169050919050565b60006103b682610354565b6103c0818561035f565b93506103d0818560208601610370565b6103d98161039a565b840191505092915050565b600081519050919050565b600082825260208201905092915050565b600061040b826103e4565b61041581856103ef565b9350610425818560208601610370565b61042e8161039a565b840191505092915050565b6000604082019050818103600083015261045381856103ab565b905081810360208301526104678184610400565b90509392505050565b600080fd5b600080fd5b7f4e487b7100000000000000000000000000000000000000000000000000000000600052604160045260246000fd5b6104b28261039a565b810181811067ffffffffffffffff821117156104d1576104d061047a565b5b80604052505050565b60006104e46102b5565b90506104f082826104a9565b919050565b600067ffffffffffffffff8211156105105761050f61047a565b5b6105198261039a565b9050602081019050919050565b82818337600083830152505050565b6000610548610543846104f5565b6104da565b90508281526020810184848401111561056457610563610475565b5b61056f848285610526565b509392505050565b600082601f83011261058c5761058b610470565b5b813561059c848260208601610535565b91505092915050565b600067ffffffffffffffff8211156105c0576105bf61047a565b5b6105c98261039a565b9050602081019050919050565b60006105e96105e4846105a5565b6104da565b90508281526020810184848401111561060557610604610475565b5b610610848285610526565b509392505050565b600082601f83011261062d5761062c610470565b5b813561063d8482602086016105d6565b91505092915050565b60008060006060848603121561065f5761065e6102bf565b5b600061066d86828701610312565b935050602084013567ffffffffffffffff81111561068e5761068d6102c4565b5b61069a86828701610577565b925050604084013567ffffffffffffffff8111156106bb576106ba6102c4565b5b6106c786828701610618565b9150509250925092565b7f4e487b7100000000000000000000000000000000000000000000000000000000600052602260045260246000fd5b6000600282049050600182168061071857607f821691505b60208210810361072b5761072a6106d1565b5b50919050565b60008190508160005260206000209050919050565b60006020601f8301049050919050565b600082821b905092915050565b6000600883026107937fffffffffffffffffffffffffffffffffffffffffffffffffffffffffffffffff82610756565b61079d8683610756565b95508019841693508086168417925050509392505050565b6000819050919050565b6000819050919050565b60006107e46107df6107da846107b5565b6107bf565b6107b5565b9050919050565b6000819050919050565b6107fe836107c9565b61081261080a826107eb565b848454610763565b825550505050565b600090565b61082761081a565b6108328184846107f5565b505050565b5b818110156108565761084b60008261081f565b600181019050610838565b5050565b601f82111561089b5761086c81610731565b61087584610746565b81016020851015610884578190505b61089861089085610746565b830182610837565b50505b505050565b600082821c905092915050565b60006108be600019846008026108a0565b1980831691505092915050565b60006108d783836108ad565b9150826002028217905092915050565b6108f082610354565b67ffffffffffffffff8111156109095761090861047a565b5b6109138254610700565b61091e82828561085a565b600060209050601f831160018114610951576000841561093f578287015190505b61094985826108cb565b8655506109b1565b601f19841661095f86610731565b60005b8281101561098757848901518255600182019150602085019450602081019050610962565b868310156109a457848901516109a0601f8916826108ad565b8355505b6001600288020188555050505b505050505050565b60008190508160005260206000209050919050565b601f821115610a0f576109e0816109b9565b6109e984610746565b810160208510156109f8578190505b610a0c610a0485610746565b830182610837565b50505b505050565b610a1d826103e4565b67ffffffffffffffff811115610a3657610a3561047a565b5b610a408254610700565b610a4b8282856109ce565b600060209050601f831160018114610a7e5760008415610a6c578287015190505b610a7685826108cb565b865550610ade565b601f198416610a8c866109b9565b60005b82811015610ab457848901518255600182019150602085019450602081019050610a8f565b86831015610ad15784890151610acd601f8916826108ad565b8355505b6001600288020188555050505b50505050505056fea2646970667358221220576da57a97294c55b0b0f884dada73dee5cfa40565e267894e2fdda358a1877c64736f6c63430008120033",
  "immutableReferences": {},
  "source": "//SPDX-License-Identifier: MIT\npragma solidity ^0.8.0;\ncontract Main {\nstruct User {\n        bytes signingKey;\n        string name;\n    }\n\n    mapping(address => User) private users;\n\n    function setUser(address _userAddress, bytes memory _signingKey, string memory _name) public {\n        users[_userAddress] = User(_signingKey, _name);\n    }\n\n    function getUser(address _userAddress) public view returns (bytes memory, string memory) {\n        return (users[_userAddress].signingKey, users[_userAddress].name);\n    }\n\n}\n",
  "sourcePath": "/home/eeshan/Desktop/Ethforall/backend/contracts/Main.sol",
  "compiler": {
    "name": "solc",
    "version": "0.8.18+commit.87f61d96.Emscripten.clang"
  },
  "schemaVersion": "3.4.12",
  "updatedAt": "2023-02-17T18:56:04.910Z",
  "networkType": "ethereum",
  "devdoc": {
    "kind": "dev",
    "methods": {},
    "version": 1
  },
  "userdoc": {
    "kind": "user",
    "methods": {},
    "version": 1
  }
}